:100000000C9464000C948C000C948C000C948C0068
:100010000C948C000C948C000C948C000C948C0030
:100020000C948C000C948C000C948C000C944D035C
:100030000C948C000C948C000C948C000C948C0010
:100040000C94B9060C948C000C94A4080C948C00AD
:100050000C948C000C948C000C948C000C948C00F0
:100060000C948F000C948C000000000024002700EA
:100070002A0000000000250028002B0000000000DE
:1000800023002600290004040404040404040202DA
:100090000202020203030303030301020408102007
:1000A0004080010204081020010204081020000012
:1000B0000007000201000003040600000000000029
:1000C00000008E000A04150A11241FBECFEFD8E0ED
:1000D000DEBFCDBF11E0A0E0B1E0ECECF6E102C084
:1000E00005900D92AC30B107D9F711E0ACE0B1E06A
:1000F00001C01D92A43FB107E1F710E0C8ECD0E0C9
:1001000004C02297FE010E94600BC23CD107C9F7D0
:100110000E94B2060C94640B0C94000008951F9288
:100120000F920FB60F9211242F933F934F935F932B
:100130006F937F938F939F93AF93BF93EF93FF93AF
:100140008091B90090E0887F90708036910509F425
:10015000E2C081369105CCF58832910509F47BC067
:1001600089329105B4F48031910509F46FC0813171
:1001700091053CF4009709F438C1089709F040C193
:1001800065C08831910509F466C0809709F038C1CF
:100190007FC08034910509F4A3C08134910544F4F3
:1001A0008033910509F47FC0C89709F029C186C042
:1001B0008035910509F486C08835910509F495C00C
:1001C0008834910509F01CC19EC08839910509F455
:1001D00004C189399105ECF48837910509F49BC075
:1001E000893791054CF48836910509F494C080371D
:1001F000910509F005C18FC08838910509F4EDC05B
:100200008039910509F48DC08038910509F0F8C056
:1002100088C0803B910509F4B2C0813B91054CF444
:10022000803A910509F491C0883A910509F0E8C037
:10023000A6C0803C910509F4D4C0883C910509F41E
:10024000D0C0883B910509F0DBC0B1C080910D01A1
:100250008093BB00C0C09091140180911501981744
:1002600078F490911401E0911201F0911301E90FDB
:10027000F11D80818093BB009F5F90931401ABC000
:1002800085ED8093BC008091BC0084FDFCCFB6C09E
:1002900080E280931D0185ED8093BC008091BC00BD
:1002A00084FDFCCFABC080E380931D0185ED80937E
:1002B000BC008091BC0084FDFCCFA0C088E380938B
:1002C0001D018FC0809114019091BB00E09112013B
:1002D000F0911301E80FF11D90838F5F809314015B
:1002E000909114018091150174C080911401909136
:1002F000BB00E0911201F0911301E80FF11D908312
:100300008F5F8093140185ED8093BC008091BC00C9
:1003100084FDFCCF73C083E080930C0110921C011C
:100320005AC080911C01803208F057C080911C0196
:100330009091BB00E0911A01F0911B01E80FF11DB3
:1003400090838F5F80931C0146C080911C01803296
:1003500048F480911C01E0911A01F0911B01E80F13
:10036000F11D108260911C01E0911001F0911101CA
:1003700080911A0190911B0170E0099532C084E0D0
:1003800080930C011092180110921901E0910E0156
:10039000F0910F01099580911901882341F481E0C2
:1003A00080931901E0911601F0911701108290914C
:1003B0001801E0911601F0911701E90FF11D8081FC
:1003C0008093BB009F5F90931801909118018091DA
:1003D0001901981710F485EC01C085E88093BC00E2
:1003E0000FC085EC8093BC0009C010921D0185ED03
:1003F0008093BC008091BC0084FDFCCF10920C0166
:10040000FF91EF91BF91AF919F918F917F916F91EC
:100410005F914F913F912F910F900FBE0F901F90C2
:100420001895FC0180911E018C3090F480838F5FC1
:1004300080931E01815090E0FC01EE0FFF1FE80F3A
:10044000F91FE15EFE4F8CED95E092838183089564
:100450008FEF80830895FC0130813C3078F58181F5
:10046000992787FD909548E850E0481B590B440FA9
:10047000551F440F551F6417750784F08281992713
:1004800087FD909548E552E0481B590B440F551FD6
:10049000440F551F641775070CF4AB012FB7F89480
:1004A000832F90E0FC01EE0FFF1FE80FF91FE15EC4
:1004B000FE4F46505040528341832FBF0895AF9264
:1004C000BF92CF92DF92EF92FF920F931F93CF9341
:1004D000DF93EC019B0182E0603278070CF048C0AA
:1004E00077FF03C020E030E005C0653B710514F0E4
:1004F00024EB30E000D000D0B901882777FD80954B
:10050000982F2981332727FD3095B8E8AB2EB12CE1
:10051000A21AB30AAA0CBB1CAA0CBB1CCC24B7FCA5
:10052000C094DC2CEA81FF27E7FDF09528E532E056
:100530002E1B3F0B220F331F220F331F442737FD83
:100540004095542FEDB7FEB7218332834383548304
:1005500020E030E040E050E0E4EBEE2EF12C012D05
:10056000112D0E94860A9B010F900F900F900F9003
:10057000CE01B9010E942B02DF91CF911F910F9103
:10058000FF90EF90DF90CF90BF90AF900895CF9203
:10059000DF92EF92FF921F93CF93DF93EC01162F20
:1005A0007A01690188818C3008F064C0862F61E08F
:1005B0000E94E807888190E0FC01EE0FFF1FE80F22
:1005C000F91FE15EFE4F1F738081807C812B808349
:1005D00080E292E08E199F0964E070E00E94FA0ABE
:1005E000698380E699E08C199D0964E070E00E94BF
:1005F000FA0A6A83A8818A2F6CE00E94EE0A682FAB
:1006000070E0AB01440F551F460F571F440F551F95
:10061000440F551F20E030E0C901840F951FFC01F5
:10062000EE0FFF1FE80FF91FE15EFE4F808186FD90
:1006300015C02F5F3F4F2C30310571F724C0109249
:10064000800082E0809381001092850010928400E7
:10065000B19A80916F00826080936F008A2F90E042
:10066000FC01EE0FFF1FE80FF91FE15EFE4F8081D6
:10067000806480838881DF91CF911F91FF90EF90FC
:10068000DF90CF900895672BD1F2E8CF40E252E09F
:1006900020E639E00E94C70208951F920F920FB61C
:1006A0000F9211242F933F934F935F936F937F93F8
:1006B0008F939F93AF93BF93EF93FF9380914301E9
:1006C00087FF05C010928500109284002BC02091F6
:1006D0004301332727FD309580911E0190E02817B4
:1006E000390704F580914301992787FD9095FC0116
:1006F000EE0FFF1FE80FF91FE15EFE4F808186FFBE
:1007000011C080914301992787FD9095FC01EE0F60
:10071000FF1FE80FF91FE15EFE4F80818F7360E0DD
:100720000E940808809143018F5F809343012091CC
:100730004301332727FD309580911E0190E0281753
:1007400039070CF04EC0809143018C300CF049C049
:10075000209184003091850080914301992787FD85
:100760009095FC01EE0FFF1FE80FF91FE15EFE4FB1
:1007700081819281280F391F30938900209388004E
:1007800080914301992787FD9095FC01EE0FFF1F93
:10079000E80FF91FE15EFE4F808186FF2AC080913D
:1007A0004301992787FD9095FC01EE0FFF1FE80F8D
:1007B000F91FE15EFE4F80818F7361E00E9408089F
:1007C00018C080E29EE405C080918400909185006D
:1007D000049690938900809388008FEF8093430163
:1007E00008C0809184009091850084529E4448F313
:1007F000EBCFFF91EF91BF91AF919F918F917F913F
:100800006F915F914F913F912F910F900FBE0F907D
:100810001F9018950F931F9304E411E0C8010E94E4
:100820001102C80103960E941102C80106960E9497
:1008300011021F910F910895AF92BF92CF92DF9254
:10084000EF92FF920F931F93DF93CF9300D000D0CE
:10085000CDB7DEB700E010E07E010894E11CF11C8A
:10086000DD24DA9481EE91E00E94DA098F3F910550
:1008700031F410924E0110924D01D98210C097FDB3
:100880000EC0E0914D01F0914E01F7FD08C0319688
:10089000F0934E01E0934D01EE0DFF1D808380919A
:1008A0004D0190914E01049729F00F5F1F4F0430C6
:1008B0001105C1F680914D0190914E01049709F008
:1008C000F1C08FEF9FEF90934E0180934D018A818D
:1008D000823009F0D3C08B81882339F48C816FEF8B
:1008E00070E0681B710988E008C0813049F48C8190
:1008F0006FEF70E0681B710982E10E948F07D2C020
:10090000823039F48C816FEF70E0681B710989E0E7
:10091000F4CF833039F48C816FEF70E0681B71097C
:1009200085E0EBCF843039F48C816FEF70E0681B89
:10093000710987E0E2CF853039F48C816FEF70E088
:10094000681B710986E0D9CF863039F48C816FEF4E
:1009500070E0681B710982E0D0CF873039F48C8158
:100960006FEF70E0681B710984E0C7CF883039F4FD
:100970008C816FEF70E0681B710983E0BECF80311E
:1009800039F500D000D06C8170E080E090E024EB7D
:1009900030E040E050E0EDB7FEB72183328343837F
:1009A000548320E030E040E050E0AFEFEA2EF12C3D
:1009B000012D112DAA24BB2465010E94860A9B01EA
:1009C000AC010F900F900F900F9087E491E052C010
:1009D000813139F500D000D06C8170E080E090E08A
:1009E00024EB30E040E050E0EDB7FEB721833283E6
:1009F0004383548320E030E040E050E0FFEFEF2EEF
:100A0000F12C012D112DAA24BB2465010E94860A18
:100A10009B01AC010F900F900F900F908AE491E032
:100A200029C0823109F03EC000D000D06C8170E056
:100A300080E090E024EB30E040E050E0EDB7FEB71E
:100A4000218332834383548320E030E040E050E050
:100A5000EFEFEE2EF12C012D112DAA24BB24650100
:100A60000E94860A9B01AC010F900F900F900F908F
:100A70008DE491E0B9010E945F0214C0833091F4CB
:100A80008B81882331F460E08C81811161E08EE0FC
:100A900007C0813039F460E08C81811161E08FE022
:100AA0000E9408088FEF898301E00A838AE00E9490
:100AB0005508182F80914F01181781F01B821C8256
:100AC000112309F40C8381EE91E0BE016F5F7F4F2B
:100AD00043E050E00E94670A10934F0183E10E94B7
:100AE0005508182F80915001181789F081E08B83E9
:100AF0001C82112309F48C8381EE91E0BE016F5FAB
:100B00007F4F43E050E00E94670A1093500184E158
:100B10000E945508182F80915101181791F082E01A
:100B20008B831C82112311F481E08C8381EE91E090
:100B3000BE016F5F7F4F43E050E00E94670A109351
:100B40005101809153018F5F80935301815090E058
:100B50008F7090708430910551F08C309105C1F008
:100B6000892B89F581E10E94710724E004C080E1AE
:100B70000E94710725E02A839B838C8381EE91E09C
:100B8000BE016F5F7F4F43E050E00E94670A1BC0C9
:100B900010E0212F332727FD30958091520190E0FE
:100BA0002817390781F081E08A8383E08B831C83D7
:100BB00081EE91E0BE016F5F7F4F43E050E00E9405
:100BC000670A109352016AE070E080E090E00E94B2
:100BD0000D070F900F900F900F90CF91DF911F9105
:100BE0000F91FF90EF90DF90CF90BF90AF9008955E
:100BF00088E061E00E94080882E161E00E94080844
:100C000089E061E00E94080888E061E00E94E8074E
:100C100082E161E00E94E80789E061E00E94E80764
:100C200085E061E00E94080887E061E00E94080812
:100C300086E061E00E94080885E061E00E94E80724
:100C400087E061E00E94E80786E061E00E94E80733
:100C500082E061E00E94080884E061E00E940808E8
:100C600083E061E00E94080882E061E00E94E807FA
:100C700084E061E00E94E80783E061E00E94E80709
:100C800008958EE061E00E94E8078FE061E00E9435
:100C9000E80708958AE060E00E94E80783E160E0E9
:100CA0000E94E80784E160E00E94E8078AE061E0D2
:100CB0000E94080883E161E00E94080884E161E085
:100CC0000E9408080895EF92FF920F931F9381EE00
:100CD00091E040E855E260E070E00E94E1080E9487
:100CE000F8050E9441060E944A0607E411E0C80187
:100CF0006BE070E00E944603C8016AE570E00E9464
:100D00005F02B3E0EB2EF12CE00EF11EC7016CE0A8
:100D100070E00E944603C7016AE570E00E945F022E
:100D20000A5F1F4FC8016DE070E00E944603C801D2
:100D30006AE570E00E945F028AE00E945508809395
:100D40004F0183E10E9455088093500184E10E9485
:100D5000550880935101109252011F910F91FF90FD
:100D6000EF9008950E9437070E9463060E941C04BA
:100D7000FDCF1F920F920FB60F9211242F933F9326
:100D80004F935F936F937F938F939F93AF93BF9393
:100D9000209158013091590140915A0150915B01C5
:100DA00070915C01DA01C9010296A11DB11D672F86
:100DB0006A5F6D3730F06D57DA01C9010396A11DE6
:100DC000B11D60935C018093580190935901A093E9
:100DD0005A01B0935B018091540190915501A0910B
:100DE0005601B09157010196A11DB11D8093540188
:100DF00090935501A0935601B0935701BF91AF91C5
:100E00009F918F917F916F915F914F913F912F9122
:100E10000F900FBE0F901F901895EF92FF920F93B7
:100E20001F937B018C018FB7F8944091580150912A
:100E3000590160915A0170915B018FBF2FB7F894EF
:100E40008091580190915901A0915A01B0915B0194
:100E50002FBF841B950BA60BB70BE816F9060A07E4
:100E60001B0760F71F910F91FF90EF900895789402
:100E700084B5826084BD84B5816084BD85B582609F
:100E800085BD85B5816085BDEEE6F0E0808181603D
:100E90008083E1E8F0E080818260808380818160EE
:100EA0008083E0E8F0E0808181608083E1EBF0E026
:100EB000808184608083E0EBF0E0808181608083CA
:100EC000EAE7F0E0808184608083808182608083B3
:100ED0008081816080838081806880831092C100DE
:100EE00008958F70909100019295990F990F907CC1
:100EF000982B90937C0080917A00806480937A0094
:100F000080917A0086FDFCCF209178004091790095
:100F1000942F80E030E0282B392BC90108951F93CE
:100F2000CF93DF93182FEB0161E00E94E807E12FD8
:100F3000F0E0E255FF4F8491833051F480918000BE
:100F4000806880938000D0938900C09388003CC063
:100F5000843051F480918000806280938000D0932F
:100F60008B00C0938A0030C0813039F4209729F17A
:100F700084B5806884BDC7BD27C0823039F420970E
:100F8000E1F084B5806284BDC8BD1EC0863041F4E6
:100F90008091B00080688093B000C093B30014C00B
:100FA000873041F48091B00080628093B000C0939C
:100FB000B4000AC0C038D1051CF4812F60E002C023
:100FC000812F61E00E940808DF91CF911F91089561
:100FD000282F30E0C90186569F4FFC0194912A5773
:100FE0003F4FF9018491882391F0E82FF0E0EE0F54
:100FF000FF1FE859FF4FA591B491662329F48C9106
:10100000909589238C9308958C91892B8C930895C6
:10101000482F50E0CA0182559F4FFC012491CA011C
:1010200086569F4FFC0194914A575F4FFA013491C5
:101030003323D1F1222331F1233021F48091800038
:101040008F7705C0243031F4809180008F7D8093AC
:10105000800018C0213019F484B58F7704C0223085
:1010600021F484B58F7D84BD0DC0263021F480919C
:10107000B0008F7705C0273029F48091B0008F7DB4
:101080008093B000E32FF0E0EE0FFF1FEE58FF4F0C
:10109000A591B491662329F48C91909589238C9322
:1010A00008958C91892B8C930895682F70E0CB0163
:1010B00082559F4FFC012491CB0186569F4FFC0126
:1010C00044916A577F4FFB019491992319F420E0D2
:1010D00030E038C0222331F1233021F480918000A8
:1010E0008F7705C0243031F4809180008F7D80930C
:1010F000800018C0213019F484B58F7704C02230E5
:1011000021F484B58F7D84BD0DC0263021F48091FB
:10111000B0008F7705C0273029F48091B0008F7D13
:101120008093B000892F90E0880F991F84589F4FBB
:10113000FC01A591B4918C9120E030E0842311F062
:1011400021E030E0C90108951F920F920FB60F926F
:1011500011242F933F934F935F936F937F938F93BC
:101160009F93AF93BF93EF93FF934091C600E0919D
:10117000DD01F091DE01CF01019660E870E00E9490
:10118000FA0A9C018091DF019091E001281739074C
:1011900039F0E35AFE4F40833093DE012093DD01A6
:1011A000FF91EF91BF91AF919F918F917F916F913F
:1011B0005F914F913F912F910F900FBE0F901F9015
:1011C00018955F926F927F928F929F92AF92BF928B
:1011D000CF92DF92EF92FF920F931F93CF93DF9303
:1011E000EC013A014B01413281EA580787E0680778
:1011F00080E078070CF07FC060E472E48FE090E05C
:10120000A40193010E942F0B2150304040405040D8
:10121000CA01B90122E030E040E050E00E942F0B0B
:1012200059016A01A6019501209530954095509588
:1012300094E0220F331F441F551F9A95D1F760E0A9
:1012400072E18AE790E00E942F0BCA01B9012FEFEB
:1012500030E040E050E00E94CF0AA40193010E94D8
:101260002F0BC90181509F4F181619061CF4522EDE
:101270005A9403C055245394521A60E874E88EE1DE
:1012800090E0A40193010E942F0B21503040404078
:101290005040CA01B90122E030E040E050E00E9435
:1012A0002F0B209530954095509583E0220F331FEA
:1012B000441F551F8A95D1F760E072E18AE790E0FC
:1012C0000E942F0BCA01B9012FEF30E040E050E03F
:1012D0000E94CF0AA40193010E942F0BC9018150E3
:1012E0009F4F181619061CF4822F815002C081E00E
:1012F000821B851500F5E885F98581E090E00A8874
:1013000002C0880F991F0A94E2F7808360E874E8AE
:101310008EE190E0A40193010E942F0B21503040F8
:1013200040405040CA01B90122E030E040E050E0C6
:101330000E942F0B04C0E885F98510829501EC818D
:10134000FD813083EE81FF812083EA85FB8520814A
:1013500041E050E0CA010E8402C0880F991F0A9430
:10136000E2F7282B2083EA85FB852081CA010F84C0
:1013700002C0880F991F0A94E2F7282B2083EA8580
:10138000FB858081088802C0440F551F0A94E2F74C
:10139000842B8083DF91CF911F910F91FF90EF906D
:1013A000DF90CF90BF90AF909F908F907F906F9085
:1013B0005F900895CF93DF93DC011296ED91FC913D
:1013C0001397EF01CE57DF4F48815981E058FF4F07
:1013D00080819181E058F0408417950719F42FEF30
:1013E0003FEF0CC0E40FF51F2081CA01019660E8B1
:1013F00070E00E94FA0A9983888330E0C901DF9186
:10140000CF910895FC01A085B18521898C9190E050
:10141000022E02C0959587950A94E2F780FFF6CFD9
:101420000484F585E02D6083089585E091E0909334
:10143000E2018093E1018DE591E09093E4018093D6
:10144000E30185EC90E09093E6018093E50184EC64
:1014500090E09093E8018093E70180EC90E0909316
:10146000EA018093E90181EC90E09093EC01809394
:10147000EB0186EC90E09093EE018093ED0184E027
:101480008093EF0183E08093F00187E08093F10186
:1014900085E08093F20181E08093F30108950F933A
:1014A0001F93CF93DF938C01EB0109C02196D801E4
:1014B000ED91FC910190F081E02DC80109956881C2
:1014C0006623A1F7DF91CF911F910F910895EF92BD
:1014D000FF920F931F93CF93DF938C017B01EA015F
:1014E0000CC0D7016D917D01D801ED91FC91019067
:1014F000F081E02DC80109952197209791F7DF91A0
:10150000CF911F910F91FF90EF9008952F923F92EE
:101510004F925F926F927F928F929F92AF92BF9203
:10152000CF92DF92EF92FF920F931F93DF93CF93AF
:10153000CDB7DEB73B014C0119012A016D897E89C7
:101540008F89988D6A197B098C099D09621A730A23
:10155000840A950AA40193010E94CF0AE218F308B5
:1015600004091509A80197010E942F0B2A0D3B1DA4
:101570004C1D5D1DB901CA01CF91DF911F910F91E3
:10158000FF90EF90DF90CF90BF90AF909F908F90A3
:101590007F906F905F904F903F902F900895629F43
:1015A000D001739FF001829FE00DF11D649FE00D5B
:1015B000F11D929FF00D839FF00D749FF00D659FBC
:1015C000F00D9927729FB00DE11DF91F639FB00DBB
:1015D000E11DF91FBD01CF0111240895991B79E088
:1015E00004C0991F961708F0961B881F7A95C9F7B3
:1015F0008095089597FB092E07260AD077FD04D021
:1016000049D006D000201AF4709561957F4F089557
:10161000F6F7909581959F4F0895A1E21A2EAA1B87
:10162000BB1BFD010DC0AA1FBB1FEE1FFF1FA21792
:10163000B307E407F50720F0A21BB30BE40BF50B8F
:10164000661F771F881F991F1A9469F76095709518
:10165000809590959B01AC01BD01CF01089597FB4A
:10166000092E05260ED057FD04D0D7DF0AD0001C66
:1016700038F450954095309521953F4F4F4F5F4F2F
:101680000895F6F790958095709561957F4F8F4FEF
:101690009F4F0895AA1BBB1B51E107C0AA1FBB1F88
:1016A000A617B70710F0A61BB70B881F991F5A95EE
:1016B000A9F780959095BC01CD010895EE0FFF1F0D
:0C16C0000590F491E02D0994F894FFCF00
:0C16CC000100000000020A4F0A670A003B
:00000001FF
